{
  "contractName": "PaymentChannels",
  "abi": [
    {
      "constant": false,
      "inputs": [
        {
          "name": "amount",
          "type": "uint256"
        }
      ],
      "name": "withdraw",
      "outputs": [],
      "payable": false,
      "stateMutability": "nonpayable",
      "type": "function"
    },
    {
      "constant": false,
      "inputs": [
        {
          "name": "hash",
          "type": "bytes32"
        },
        {
          "name": "sig",
          "type": "bytes"
        },
        {
          "name": "signer",
          "type": "address"
        }
      ],
      "name": "ecverify",
      "outputs": [
        {
          "name": "b",
          "type": "bool"
        }
      ],
      "payable": false,
      "stateMutability": "nonpayable",
      "type": "function"
    },
    {
      "constant": false,
      "inputs": [],
      "name": "quickDeposit",
      "outputs": [],
      "payable": true,
      "stateMutability": "payable",
      "type": "function"
    },
    {
      "constant": false,
      "inputs": [
        {
          "name": "_address",
          "type": "address"
        }
      ],
      "name": "depositToAddress",
      "outputs": [],
      "payable": true,
      "stateMutability": "payable",
      "type": "function"
    },
    {
      "constant": true,
      "inputs": [
        {
          "name": "_address",
          "type": "address"
        }
      ],
      "name": "balanceOf",
      "outputs": [
        {
          "name": "balance",
          "type": "uint256"
        }
      ],
      "payable": false,
      "stateMutability": "view",
      "type": "function"
    },
    {
      "constant": false,
      "inputs": [
        {
          "name": "hash",
          "type": "bytes32"
        },
        {
          "name": "sig",
          "type": "bytes"
        }
      ],
      "name": "ecrecovery",
      "outputs": [
        {
          "name": "",
          "type": "address"
        }
      ],
      "payable": false,
      "stateMutability": "nonpayable",
      "type": "function"
    },
    {
      "constant": true,
      "inputs": [
        {
          "name": "",
          "type": "bytes32"
        }
      ],
      "name": "channels",
      "outputs": [
        {
          "name": "address0",
          "type": "address"
        },
        {
          "name": "address1",
          "type": "address"
        },
        {
          "name": "totalBalance",
          "type": "uint256"
        },
        {
          "name": "balance0",
          "type": "uint256"
        },
        {
          "name": "balance1",
          "type": "uint256"
        },
        {
          "name": "sequenceNumber",
          "type": "uint256"
        },
        {
          "name": "settlingPeriodLength",
          "type": "uint256"
        },
        {
          "name": "settlingPeriodStarted",
          "type": "bool"
        },
        {
          "name": "settlingPeriodEnd",
          "type": "uint256"
        }
      ],
      "payable": false,
      "stateMutability": "view",
      "type": "function"
    },
    {
      "constant": true,
      "inputs": [
        {
          "name": "",
          "type": "address"
        },
        {
          "name": "",
          "type": "address"
        }
      ],
      "name": "channelBetweenPairs",
      "outputs": [
        {
          "name": "",
          "type": "bool"
        }
      ],
      "payable": false,
      "stateMutability": "view",
      "type": "function"
    },
    {
      "anonymous": false,
      "inputs": [
        {
          "indexed": true,
          "name": "address0",
          "type": "address"
        },
        {
          "indexed": true,
          "name": "address1",
          "type": "address"
        },
        {
          "indexed": false,
          "name": "_channelId",
          "type": "bytes32"
        }
      ],
      "name": "ChannelOpened",
      "type": "event"
    },
    {
      "anonymous": false,
      "inputs": [
        {
          "indexed": true,
          "name": "_channelId",
          "type": "bytes32"
        },
        {
          "indexed": false,
          "name": "_sequenceNumber",
          "type": "uint256"
        }
      ],
      "name": "SettlingStarted",
      "type": "event"
    },
    {
      "anonymous": false,
      "inputs": [
        {
          "indexed": true,
          "name": "_channelId",
          "type": "bytes32"
        }
      ],
      "name": "ChannelReDrawn",
      "type": "event"
    },
    {
      "constant": false,
      "inputs": [
        {
          "name": "_address0",
          "type": "address"
        },
        {
          "name": "_address1",
          "type": "address"
        },
        {
          "name": "_balance0",
          "type": "uint256"
        },
        {
          "name": "_balance1",
          "type": "uint256"
        },
        {
          "name": "_expiration",
          "type": "uint256"
        },
        {
          "name": "_settlingPeriodLength",
          "type": "uint256"
        },
        {
          "name": "_signature0",
          "type": "bytes"
        },
        {
          "name": "_signature1",
          "type": "bytes"
        }
      ],
      "name": "newChannel",
      "outputs": [],
      "payable": false,
      "stateMutability": "nonpayable",
      "type": "function"
    },
    {
      "constant": false,
      "inputs": [
        {
          "name": "_channelId",
          "type": "bytes32"
        },
        {
          "name": "_sequenceNumber",
          "type": "uint256"
        },
        {
          "name": "_balance0",
          "type": "uint256"
        },
        {
          "name": "_balance1",
          "type": "uint256"
        },
        {
          "name": "_signature0",
          "type": "bytes"
        },
        {
          "name": "_signature1",
          "type": "bytes"
        }
      ],
      "name": "updateState",
      "outputs": [],
      "payable": false,
      "stateMutability": "nonpayable",
      "type": "function"
    },
    {
      "constant": false,
      "inputs": [
        {
          "name": "_channelId",
          "type": "bytes32"
        },
        {
          "name": "_sequenceNumber",
          "type": "uint256"
        },
        {
          "name": "_balance0",
          "type": "uint256"
        },
        {
          "name": "_balance1",
          "type": "uint256"
        },
        {
          "name": "_signature0",
          "type": "bytes"
        },
        {
          "name": "_signature1",
          "type": "bytes"
        },
        {
          "name": "_bountyAmount",
          "type": "uint256"
        },
        {
          "name": "_bountySignature",
          "type": "bytes"
        }
      ],
      "name": "updateStateWithBounty",
      "outputs": [],
      "payable": false,
      "stateMutability": "nonpayable",
      "type": "function"
    },
    {
      "constant": false,
      "inputs": [
        {
          "name": "_channelId",
          "type": "bytes32"
        },
        {
          "name": "_sequenceNumber",
          "type": "uint256"
        },
        {
          "name": "_balance0",
          "type": "uint256"
        },
        {
          "name": "_balance1",
          "type": "uint256"
        },
        {
          "name": "_signature0",
          "type": "bytes"
        },
        {
          "name": "_signature1",
          "type": "bytes"
        }
      ],
      "name": "closeChannelFast",
      "outputs": [],
      "payable": false,
      "stateMutability": "nonpayable",
      "type": "function"
    },
    {
      "constant": false,
      "inputs": [
        {
          "name": "_channelId",
          "type": "bytes32"
        },
        {
          "name": "_signature",
          "type": "bytes"
        }
      ],
      "name": "startSettlingPeriod",
      "outputs": [],
      "payable": false,
      "stateMutability": "nonpayable",
      "type": "function"
    },
    {
      "constant": false,
      "inputs": [
        {
          "name": "_channelId",
          "type": "bytes32"
        }
      ],
      "name": "closeChannel",
      "outputs": [],
      "payable": false,
      "stateMutability": "nonpayable",
      "type": "function"
    },
    {
      "constant": false,
      "inputs": [
        {
          "name": "_channelId",
          "type": "bytes32"
        },
        {
          "name": "_sequenceNumber",
          "type": "uint256"
        },
        {
          "name": "_oldBalance0",
          "type": "uint256"
        },
        {
          "name": "_oldBalance1",
          "type": "uint256"
        },
        {
          "name": "_newBalance0",
          "type": "uint256"
        },
        {
          "name": "_newBalance1",
          "type": "uint256"
        },
        {
          "name": "_expiration",
          "type": "uint256"
        },
        {
          "name": "_signature0",
          "type": "bytes"
        },
        {
          "name": "_signature1",
          "type": "bytes"
        }
      ],
      "name": "reDraw",
      "outputs": [],
      "payable": false,
      "stateMutability": "nonpayable",
      "type": "function"
    }
  ],
  "bytecode": "0x608060405234801561001057600080fd5b5061340f806100206000396000f3006080604052600436106100db576000357c0100000000000000000000000000000000000000000000000000000000900463ffffffff168063070eae11146100e05780632197daa1146101bb5780632d1eda18146102b45780632e1a7d4d1461038f57806339cdde32146103bc578063454f7ed81461046b5780634c0f0e12146105825780634c2ee09d1461058c578063562cc33c146105bd57806370a08231146105f357806377d32e941461064a5780637a7ebd7b14610701578063d50e30ce146107da578063e12d11a314610851578063fa7c09da146108cc575b600080fd5b3480156100ec57600080fd5b506101b96004803603810190808035600019169060200190929190803590602001909291908035906020019092919080359060200190929190803590602001908201803590602001908080601f0160208091040260200160405190810160405280939291908181526020018383808284378201915050505050509192919290803590602001908201803590602001908080601f01602080910402602001604051908101604052809392919081815260200183838082843782019150505050505091929192905050506109f7565b005b3480156101c757600080fd5b506102b26004803603810190808035600019169060200190929190803590602001909291908035906020019092919080359060200190929190803590602001909291908035906020019092919080359060200190929190803590602001908201803590602001908080601f0160208091040260200160405190810160405280939291908181526020018383808284378201915050505050509192919290803590602001908201803590602001908080601f0160208091040260200160405190810160405280939291908181526020018383808284378201915050505050509192919290505050610f9b565b005b3480156102c057600080fd5b5061038d6004803603810190808035600019169060200190929190803590602001909291908035906020019092919080359060200190929190803590602001908201803590602001908080601f0160208091040260200160405190810160405280939291908181526020018383808284378201915050505050509192919290803590602001908201803590602001908080601f016020809104026020016040519081016040528093929190818152602001838380828437820191505050505050919291929050505061154e565b005b34801561039b57600080fd5b506103ba60048036038101908080359060200190929190505050611bc1565b005b3480156103c857600080fd5b506104516004803603810190808035600019169060200190929190803590602001908201803590602001908080601f0160208091040260200160405190810160405280939291908181526020018383808284378201915050505050509192919290803573ffffffffffffffffffffffffffffffffffffffff169060200190929190505050611c9e565b604051808215151515815260200191505060405180910390f35b34801561047757600080fd5b50610580600480360381019080803573ffffffffffffffffffffffffffffffffffffffff169060200190929190803573ffffffffffffffffffffffffffffffffffffffff16906020019092919080359060200190929190803590602001909291908035906020019092919080359060200190929190803590602001908201803590602001908080601f0160208091040260200160405190810160405280939291908181526020018383808284378201915050505050509192919290803590602001908201803590602001908080601f0160208091040260200160405190810160405280939291908181526020018383808284378201915050505050509192919290505050611ce4565b005b61058a6121b8565b005b34801561059857600080fd5b506105bb600480360381019080803560001916906020019092919050505061225d565b005b6105f1600480360381019080803573ffffffffffffffffffffffffffffffffffffffff16906020019092919050505061269a565b005b3480156105ff57600080fd5b50610634600480360381019080803573ffffffffffffffffffffffffffffffffffffffff169060200190929190505050612779565b6040518082815260200191505060405180910390f35b34801561065657600080fd5b506106bf6004803603810190808035600019169060200190929190803590602001908201803590602001908080601f01602080910402602001604051908101604052809392919081815260200183838082843782019150505050505091929192905050506127c1565b604051808273ffffffffffffffffffffffffffffffffffffffff1673ffffffffffffffffffffffffffffffffffffffff16815260200191505060405180910390f35b34801561070d57600080fd5b506107306004803603810190808035600019169060200190929190505050612890565b604051808a73ffffffffffffffffffffffffffffffffffffffff1673ffffffffffffffffffffffffffffffffffffffff1681526020018973ffffffffffffffffffffffffffffffffffffffff1673ffffffffffffffffffffffffffffffffffffffff16815260200188815260200187815260200186815260200185815260200184815260200183151515158152602001828152602001995050505050505050505060405180910390f35b3480156107e657600080fd5b5061084f6004803603810190808035600019169060200190929190803590602001908201803590602001908080601f016020809104026020016040519081016040528093929190818152602001838380828437820191505050505050919291929050505061292b565b005b34801561085d57600080fd5b506108b2600480360381019080803573ffffffffffffffffffffffffffffffffffffffff169060200190929190803573ffffffffffffffffffffffffffffffffffffffff169060200190929190505050612cce565b604051808215151515815260200191505060405180910390f35b3480156108d857600080fd5b506109f56004803603810190808035600019169060200190929190803590602001909291908035906020019092919080359060200190929190803590602001908201803590602001908080601f0160208091040260200160405190810160405280939291908181526020018383808284378201915050505050509192919290803590602001908201803590602001908080601f016020809104026020016040519081016040528093929190818152602001838380828437820191505050505050919291929080359060200190929190803590602001908201803590602001908080601f0160208091040260200160405190810160405280939291908181526020018383808284378201915050505050509192919290505050612cfd565b005b6000806001600089600019166000191681526020019081526020016000209150610b308261012060405190810160405290816000820160009054906101000a900473ffffffffffffffffffffffffffffffffffffffff1673ffffffffffffffffffffffffffffffffffffffff1673ffffffffffffffffffffffffffffffffffffffff1681526020016001820160009054906101000a900473ffffffffffffffffffffffffffffffffffffffff1673ffffffffffffffffffffffffffffffffffffffff1673ffffffffffffffffffffffffffffffffffffffff16815260200160028201548152602001600382015481526020016004820154815260200160058201548152602001600682015481526020016007820160009054906101000a900460ff16151515158152602001600882015481525050612fce565b610c498261012060405190810160405290816000820160009054906101000a900473ffffffffffffffffffffffffffffffffffffffff1673ffffffffffffffffffffffffffffffffffffffff1673ffffffffffffffffffffffffffffffffffffffff1681526020016001820160009054906101000a900473ffffffffffffffffffffffffffffffffffffffff1673ffffffffffffffffffffffffffffffffffffffff1673ffffffffffffffffffffffffffffffffffffffff16815260200160028201548152602001600382015481526020016004820154815260200160058201548152602001600682015481526020016007820160009054906101000a900460ff16151515158152602001600882015481525050613011565b610d638261012060405190810160405290816000820160009054906101000a900473ffffffffffffffffffffffffffffffffffffffff1673ffffffffffffffffffffffffffffffffffffffff1673ffffffffffffffffffffffffffffffffffffffff1681526020016001820160009054906101000a900473ffffffffffffffffffffffffffffffffffffffff1673ffffffffffffffffffffffffffffffffffffffff1673ffffffffffffffffffffffffffffffffffffffff16815260200160028201548152602001600382015481526020016004820154815260200160058201548152602001600682015481526020016007820160009054906101000a900460ff1615151515815260200160088201548152505088613036565b610e7e8261012060405190810160405290816000820160009054906101000a900473ffffffffffffffffffffffffffffffffffffffff1673ffffffffffffffffffffffffffffffffffffffff1673ffffffffffffffffffffffffffffffffffffffff1681526020016001820160009054906101000a900473ffffffffffffffffffffffffffffffffffffffff1673ffffffffffffffffffffffffffffffffffffffff1673ffffffffffffffffffffffffffffffffffffffff16815260200160028201548152602001600382015481526020016004820154815260200160058201548152602001600682015481526020016007820160009054906101000a900460ff16151515158152602001600882015481525050878761304c565b308888888860405180807f7570646174655374617465000000000000000000000000000000000000000000815250600b018673ffffffffffffffffffffffffffffffffffffffff1673ffffffffffffffffffffffffffffffffffffffff166c0100000000000000000000000002815260140185600019166000191681526020018481526020018381526020018281526020019550505050505060405180910390209050610f768185858560000160009054906101000a900473ffffffffffffffffffffffffffffffffffffffff168660010160009054906101000a900473ffffffffffffffffffffffffffffffffffffffff16613075565b8682600501819055508582600301819055508482600401819055505050505050505050565b600080600160008c6000191660001916815260200190815260200160002091506110d48261012060405190810160405290816000820160009054906101000a900473ffffffffffffffffffffffffffffffffffffffff1673ffffffffffffffffffffffffffffffffffffffff1673ffffffffffffffffffffffffffffffffffffffff1681526020016001820160009054906101000a900473ffffffffffffffffffffffffffffffffffffffff1673ffffffffffffffffffffffffffffffffffffffff1673ffffffffffffffffffffffffffffffffffffffff16815260200160028201548152602001600382015481526020016004820154815260200160058201548152602001600682015481526020016007820160009054906101000a900460ff16151515158152602001600882015481525050612fce565b6111ee8261012060405190810160405290816000820160009054906101000a900473ffffffffffffffffffffffffffffffffffffffff1673ffffffffffffffffffffffffffffffffffffffff1673ffffffffffffffffffffffffffffffffffffffff1681526020016001820160009054906101000a900473ffffffffffffffffffffffffffffffffffffffff1673ffffffffffffffffffffffffffffffffffffffff1673ffffffffffffffffffffffffffffffffffffffff16815260200160028201548152602001600382015481526020016004820154815260200160058201548152602001600682015481526020016007820160009054906101000a900460ff161515151581526020016008820154815250508b613036565b6113098261012060405190810160405290816000820160009054906101000a900473ffffffffffffffffffffffffffffffffffffffff1673ffffffffffffffffffffffffffffffffffffffff1673ffffffffffffffffffffffffffffffffffffffff1681526020016001820160009054906101000a900473ffffffffffffffffffffffffffffffffffffffff1673ffffffffffffffffffffffffffffffffffffffff1673ffffffffffffffffffffffffffffffffffffffff16815260200160028201548152602001600382015481526020016004820154815260200160058201548152602001600682015481526020016007820160009054906101000a900460ff161515151581526020016008820154815250508a8a61304c565b611312856130a5565b308b8b8b8b8b8b8b60405180807f72654472617700000000000000000000000000000000000000000000000000008152506006018973ffffffffffffffffffffffffffffffffffffffff1673ffffffffffffffffffffffffffffffffffffffff166c01000000000000000000000000028152601401886000191660001916815260200187815260200186815260200185815260200184815260200183815260200182815260200198505050505050505050604051809103902090506114228185858560000160009054906101000a900473ffffffffffffffffffffffffffffffffffffffff168660010160009054906101000a900473ffffffffffffffffffffffffffffffffffffffff16613075565b89826005018190555061143e86886130b690919063ffffffff16565b82600201819055508682600301819055508582600401819055508a600019167f82e612a2000aabe1ff6754dc8841369c15694ada2a1fb33196a48e61fcfafab360405160405180910390a26114b78260000160009054906101000a900473ffffffffffffffffffffffffffffffffffffffff168a6130d4565b6114e58260010160009054906101000a900473ffffffffffffffffffffffffffffffffffffffff16896130d4565b6115138260000160009054906101000a900473ffffffffffffffffffffffffffffffffffffffff168861316b565b6115418260010160009054906101000a900473ffffffffffffffffffffffffffffffffffffffff168761316b565b5050505050505050505050565b60008060016000896000191660001916815260200190815260200160002091506116878261012060405190810160405290816000820160009054906101000a900473ffffffffffffffffffffffffffffffffffffffff1673ffffffffffffffffffffffffffffffffffffffff1673ffffffffffffffffffffffffffffffffffffffff1681526020016001820160009054906101000a900473ffffffffffffffffffffffffffffffffffffffff1673ffffffffffffffffffffffffffffffffffffffff1673ffffffffffffffffffffffffffffffffffffffff16815260200160028201548152602001600382015481526020016004820154815260200160058201548152602001600682015481526020016007820160009054906101000a900460ff16151515158152602001600882015481525050612fce565b6117a18261012060405190810160405290816000820160009054906101000a900473ffffffffffffffffffffffffffffffffffffffff1673ffffffffffffffffffffffffffffffffffffffff1673ffffffffffffffffffffffffffffffffffffffff1681526020016001820160009054906101000a900473ffffffffffffffffffffffffffffffffffffffff1673ffffffffffffffffffffffffffffffffffffffff1673ffffffffffffffffffffffffffffffffffffffff16815260200160028201548152602001600382015481526020016004820154815260200160058201548152602001600682015481526020016007820160009054906101000a900460ff1615151515815260200160088201548152505088613036565b6118bc8261012060405190810160405290816000820160009054906101000a900473ffffffffffffffffffffffffffffffffffffffff1673ffffffffffffffffffffffffffffffffffffffff1673ffffffffffffffffffffffffffffffffffffffff1681526020016001820160009054906101000a900473ffffffffffffffffffffffffffffffffffffffff1673ffffffffffffffffffffffffffffffffffffffff1673ffffffffffffffffffffffffffffffffffffffff16815260200160028201548152602001600382015481526020016004820154815260200160058201548152602001600682015481526020016007820160009054906101000a900460ff16151515158152602001600882015481525050878761304c565b308888888860405180807f636c6f73654368616e6e656c46617374000000000000000000000000000000008152506010018673ffffffffffffffffffffffffffffffffffffffff1673ffffffffffffffffffffffffffffffffffffffff166c01000000000000000000000000028152601401856000191660001916815260200184815260200183815260200182815260200195505050505050604051809103902090506119b48185858560000160009054906101000a900473ffffffffffffffffffffffffffffffffffffffff168660010160009054906101000a900473ffffffffffffffffffffffffffffffffffffffff16613075565b868260050181905550858260030181905550848260040181905550611a018260000160009054906101000a900473ffffffffffffffffffffffffffffffffffffffff1683600301546130d4565b611a338260010160009054906101000a900473ffffffffffffffffffffffffffffffffffffffff1683600401546130d4565b600260008360000160009054906101000a900473ffffffffffffffffffffffffffffffffffffffff1673ffffffffffffffffffffffffffffffffffffffff1673ffffffffffffffffffffffffffffffffffffffff16815260200190815260200160002060008360010160009054906101000a900473ffffffffffffffffffffffffffffffffffffffff1673ffffffffffffffffffffffffffffffffffffffff1673ffffffffffffffffffffffffffffffffffffffff16815260200190815260200160002060006101000a81549060ff0219169055600160008960001916600019168152602001908152602001600020600080820160006101000a81549073ffffffffffffffffffffffffffffffffffffffff02191690556001820160006101000a81549073ffffffffffffffffffffffffffffffffffffffff0219169055600282016000905560038201600090556004820160009055600582016000905560068201600090556007820160006101000a81549060ff0219169055600882016000905550505050505050505050565b611c12816000803373ffffffffffffffffffffffffffffffffffffffff1673ffffffffffffffffffffffffffffffffffffffff1681526020019081526020016000205461320290919063ffffffff16565b6000803373ffffffffffffffffffffffffffffffffffffffff1673ffffffffffffffffffffffffffffffffffffffff168152602001908152602001600020819055503373ffffffffffffffffffffffffffffffffffffffff166108fc829081150290604051600060405180830381858888f19350505050158015611c9a573d6000803e3d6000fd5b5050565b60008173ffffffffffffffffffffffffffffffffffffffff16611cc185856127c1565b73ffffffffffffffffffffffffffffffffffffffff161490508090509392505050565b600080611cf18a8a61321b565b611cfa866130a5565b308a8a8a8a8a8a60405180807f6e65774368616e6e656c00000000000000000000000000000000000000000000815250600a018873ffffffffffffffffffffffffffffffffffffffff1673ffffffffffffffffffffffffffffffffffffffff166c010000000000000000000000000281526014018773ffffffffffffffffffffffffffffffffffffffff1673ffffffffffffffffffffffffffffffffffffffff166c010000000000000000000000000281526014018673ffffffffffffffffffffffffffffffffffffffff1673ffffffffffffffffffffffffffffffffffffffff166c0100000000000000000000000002815260140185815260200184815260200183815260200182815260200197505050505050505060405180910390209150611e288285858d8d613075565b43308b8b604051808581526020018473ffffffffffffffffffffffffffffffffffffffff1673ffffffffffffffffffffffffffffffffffffffff166c010000000000000000000000000281526014018373ffffffffffffffffffffffffffffffffffffffff1673ffffffffffffffffffffffffffffffffffffffff166c010000000000000000000000000281526014018273ffffffffffffffffffffffffffffffffffffffff1673ffffffffffffffffffffffffffffffffffffffff166c0100000000000000000000000002815260140194505050505060405180910390209050610120604051908101604052808b73ffffffffffffffffffffffffffffffffffffffff1681526020018a73ffffffffffffffffffffffffffffffffffffffff168152602001611f61898b6130b690919063ffffffff16565b815260200189815260200188815260200160008152602001868152602001600015158152602001600081525060016000836000191660001916815260200190815260200160002060008201518160000160006101000a81548173ffffffffffffffffffffffffffffffffffffffff021916908373ffffffffffffffffffffffffffffffffffffffff16021790555060208201518160010160006101000a81548173ffffffffffffffffffffffffffffffffffffffff021916908373ffffffffffffffffffffffffffffffffffffffff16021790555060408201518160020155606082015181600301556080820151816004015560a0820151816005015560c0820151816006015560e08201518160070160006101000a81548160ff02191690831515021790555061010082015181600801559050506001600260008c73ffffffffffffffffffffffffffffffffffffffff1673ffffffffffffffffffffffffffffffffffffffff16815260200190815260200160002060008b73ffffffffffffffffffffffffffffffffffffffff1673ffffffffffffffffffffffffffffffffffffffff16815260200190815260200160002060006101000a81548160ff0219169083151502179055508873ffffffffffffffffffffffffffffffffffffffff168a73ffffffffffffffffffffffffffffffffffffffff167fa79f57c989b24a51391abba00096b6d17aac193697cbc283ee2ec6570abd31118360405180826000191660001916815260200191505060405180910390a36121a28a8961316b565b6121ac898861316b565b50505050505050505050565b600034141515156121c857600080fd5b612219346000803373ffffffffffffffffffffffffffffffffffffffff1673ffffffffffffffffffffffffffffffffffffffff168152602001908152602001600020546130b690919063ffffffff16565b6000803373ffffffffffffffffffffffffffffffffffffffff1673ffffffffffffffffffffffffffffffffffffffff16815260200190815260200160002081905550565b600060016000836000191660001916815260200190815260200160002090506123958161012060405190810160405290816000820160009054906101000a900473ffffffffffffffffffffffffffffffffffffffff1673ffffffffffffffffffffffffffffffffffffffff1673ffffffffffffffffffffffffffffffffffffffff1681526020016001820160009054906101000a900473ffffffffffffffffffffffffffffffffffffffff1673ffffffffffffffffffffffffffffffffffffffff1673ffffffffffffffffffffffffffffffffffffffff16815260200160028201548152602001600382015481526020016004820154815260200160058201548152602001600682015481526020016007820160009054906101000a900460ff16151515158152602001600882015481525050612fce565b6124ae8161012060405190810160405290816000820160009054906101000a900473ffffffffffffffffffffffffffffffffffffffff1673ffffffffffffffffffffffffffffffffffffffff1673ffffffffffffffffffffffffffffffffffffffff1681526020016001820160009054906101000a900473ffffffffffffffffffffffffffffffffffffffff1673ffffffffffffffffffffffffffffffffffffffff1673ffffffffffffffffffffffffffffffffffffffff16815260200160028201548152602001600382015481526020016004820154815260200160058201548152602001600682015481526020016007820160009054906101000a900460ff161515151581526020016008820154815250506132ef565b6124e08160000160009054906101000a900473ffffffffffffffffffffffffffffffffffffffff1682600301546130d4565b6125128160010160009054906101000a900473ffffffffffffffffffffffffffffffffffffffff1682600401546130d4565b600260008260000160009054906101000a900473ffffffffffffffffffffffffffffffffffffffff1673ffffffffffffffffffffffffffffffffffffffff1673ffffffffffffffffffffffffffffffffffffffff16815260200190815260200160002060008260010160009054906101000a900473ffffffffffffffffffffffffffffffffffffffff1673ffffffffffffffffffffffffffffffffffffffff1673ffffffffffffffffffffffffffffffffffffffff16815260200190815260200160002060006101000a81549060ff0219169055600160008360001916600019168152602001908152602001600020600080820160006101000a81549073ffffffffffffffffffffffffffffffffffffffff02191690556001820160006101000a81549073ffffffffffffffffffffffffffffffffffffffff0219169055600282016000905560038201600090556004820160009055600582016000905560068201600090556007820160006101000a81549060ff0219169055600882016000905550505050565b600034141580156126d85750600073ffffffffffffffffffffffffffffffffffffffff168173ffffffffffffffffffffffffffffffffffffffff1614155b15156126e357600080fd5b612734346000808473ffffffffffffffffffffffffffffffffffffffff1673ffffffffffffffffffffffffffffffffffffffff168152602001908152602001600020546130b690919063ffffffff16565b6000808373ffffffffffffffffffffffffffffffffffffffff1673ffffffffffffffffffffffffffffffffffffffff1681526020019081526020016000208190555050565b60008060008373ffffffffffffffffffffffffffffffffffffffff1673ffffffffffffffffffffffffffffffffffffffff168152602001908152602001600020549050919050565b600080600080604185511415156127db5760009350612887565b602085015192506040850151915060418501519050601b8160ff16101561280357601b810190505b600186828585604051600081526020016040526040518085600019166000191681526020018460ff1660ff1681526020018360001916600019168152602001826000191660001916815260200194505050505060206040516020810390808403906000865af115801561287a573d6000803e3d6000fd5b5050506020604051035193505b50505092915050565b60016020528060005260406000206000915090508060000160009054906101000a900473ffffffffffffffffffffffffffffffffffffffff16908060010160009054906101000a900473ffffffffffffffffffffffffffffffffffffffff16908060020154908060030154908060040154908060050154908060060154908060070160009054906101000a900460ff16908060080154905089565b6000806001600085600019166000191681526020019081526020016000209150612a648261012060405190810160405290816000820160009054906101000a900473ffffffffffffffffffffffffffffffffffffffff1673ffffffffffffffffffffffffffffffffffffffff1673ffffffffffffffffffffffffffffffffffffffff1681526020016001820160009054906101000a900473ffffffffffffffffffffffffffffffffffffffff1673ffffffffffffffffffffffffffffffffffffffff1673ffffffffffffffffffffffffffffffffffffffff16815260200160028201548152602001600382015481526020016004820154815260200160058201548152602001600682015481526020016007820160009054906101000a900460ff16151515158152602001600882015481525050612fce565b612b7d8261012060405190810160405290816000820160009054906101000a900473ffffffffffffffffffffffffffffffffffffffff1673ffffffffffffffffffffffffffffffffffffffff1673ffffffffffffffffffffffffffffffffffffffff1681526020016001820160009054906101000a900473ffffffffffffffffffffffffffffffffffffffff1673ffffffffffffffffffffffffffffffffffffffff1673ffffffffffffffffffffffffffffffffffffffff16815260200160028201548152602001600382015481526020016004820154815260200160058201548152602001600682015481526020016007820160009054906101000a900460ff16151515158152602001600882015481525050613313565b308460405180807f7374617274536574746c696e67506572696f64000000000000000000000000008152506013018373ffffffffffffffffffffffffffffffffffffffff1673ffffffffffffffffffffffffffffffffffffffff166c0100000000000000000000000002815260140182600019166000191681526020019250505060405180910390209050612c5c81848460000160009054906101000a900473ffffffffffffffffffffffffffffffffffffffff168560010160009054906101000a900473ffffffffffffffffffffffffffffffffffffffff16613327565b60018260070160006101000a81548160ff02191690831515021790555081600601544301826008018190555083600019167f3056d24bbd309126a16a958bff629f248252f4e3385bed4f25de7b7410c04f0383600501546040518082815260200191505060405180910390a250505050565b60026020528160005260406000206020528060005260406000206000915091509054906101000a900460ff1681565b612d05613368565b600080600160008c6000191660001916815260200190815260200160002061012060405190810160405290816000820160009054906101000a900473ffffffffffffffffffffffffffffffffffffffff1673ffffffffffffffffffffffffffffffffffffffff1673ffffffffffffffffffffffffffffffffffffffff1681526020016001820160009054906101000a900473ffffffffffffffffffffffffffffffffffffffff1673ffffffffffffffffffffffffffffffffffffffff1673ffffffffffffffffffffffffffffffffffffffff16815260200160028201548152602001600382015481526020016004820154815260200160058201548152602001600682015481526020016007820160009054906101000a900460ff161515151581526020016008820154815250509250612e3e83613355565b308b8b8b8b8b8b8b60405180807f757064617465537461746557697468426f756e747900000000000000000000008152506015018973ffffffffffffffffffffffffffffffffffffffff1673ffffffffffffffffffffffffffffffffffffffff166c01000000000000000000000000028152601401886000191660001916815260200187815260200186815260200185815260200184805190602001908083835b602083101515612f045780518252602082019150602081019050602083039250612edf565b6001836020036101000a03801982511681845116808217855250505050505090500183805190602001908083835b602083101515612f575780518252602082019150602081019050602083039250612f32565b6001836020036101000a0380198251168184511680821785525050505050509050018281526020019850505050505050505060405180910390209150612f9d82856127c1565b9050612fa9818661316b565b612fb333866130d4565b612fc18b8b8b8b8b8b6109f7565b5050505050505050505050565b600073ffffffffffffffffffffffffffffffffffffffff16816000015173ffffffffffffffffffffffffffffffffffffffff161415151561300e57600080fd5b50565b8060e00151801561302757508061010001514310155b15151561303357600080fd5b50565b8160a001518111151561304857600080fd5b5050565b826040015161306482846130b690919063ffffffff16565b14151561307057600080fd5b505050565b613080858584611c9e565b80156130935750613092858483611c9e565b5b151561309e57600080fd5b5050505050565b80431015156130b357600080fd5b50565b60008082840190508381101515156130ca57fe5b8091505092915050565b613125816000808573ffffffffffffffffffffffffffffffffffffffff1673ffffffffffffffffffffffffffffffffffffffff168152602001908152602001600020546130b690919063ffffffff16565b6000808473ffffffffffffffffffffffffffffffffffffffff1673ffffffffffffffffffffffffffffffffffffffff168152602001908152602001600020819055505050565b6131bc816000808573ffffffffffffffffffffffffffffffffffffffff1673ffffffffffffffffffffffffffffffffffffffff1681526020019081526020016000205461320290919063ffffffff16565b6000808473ffffffffffffffffffffffffffffffffffffffff1673ffffffffffffffffffffffffffffffffffffffff168152602001908152602001600020819055505050565b600082821115151561321057fe5b818303905092915050565b8073ffffffffffffffffffffffffffffffffffffffff168273ffffffffffffffffffffffffffffffffffffffff1610151561325557600080fd5b600260008373ffffffffffffffffffffffffffffffffffffffff1673ffffffffffffffffffffffffffffffffffffffff16815260200190815260200160002060008273ffffffffffffffffffffffffffffffffffffffff1673ffffffffffffffffffffffffffffffffffffffff16815260200190815260200160002060009054906101000a900460ff161515156132eb57600080fd5b5050565b8060e00151801561330557508061010001514310155b151561331057600080fd5b50565b8060e0015115151561332457600080fd5b50565b613332848484611c9e565b806133445750613343848483611c9e565b5b151561334f57600080fd5b50505050565b8060e00151151561336557600080fd5b50565b61012060405190810160405280600073ffffffffffffffffffffffffffffffffffffffff168152602001600073ffffffffffffffffffffffffffffffffffffffff16815260200160008152602001600081526020016000815260200160008152602001600081526020016000151581526020016000815250905600a165627a7a723058202e7acd223bc41580a7a134213b5943002997de558f723fde8d030881bf32479a0029",
  "source": "pragma solidity ^0.4.11;\nimport \"./ECVerify.sol\";\nimport \"./ETHWallet.sol\";\n\n/// @dev To test this contract first install node 8 or above. Then run `npm install`, `npm run testrpc` (keep this running in the background), `npm run migrate`, finally run `npm run test` to run the unit tests.\ncontract PaymentChannels is ECVerify, ETHWallet {\n    struct Channel {\n        address address0;\n        address address1;\n        uint256 totalBalance;\n        uint256 balance0;\n        uint256 balance1;\n        uint256 sequenceNumber;\n        uint256 settlingPeriodLength;\n        bool settlingPeriodStarted;\n        uint256 settlingPeriodEnd;\n    }\n\n    event ChannelOpened(\n        address indexed address0,\n        address indexed address1,\n        bytes32 _channelId\n    );\n\n    event SettlingStarted(\n        bytes32 indexed _channelId,\n        uint256 _sequenceNumber\n    );\n\n    event ChannelReDrawn(\n        bytes32 indexed _channelId\n    );\n\n    mapping (bytes32 => Channel) public channels;\n    mapping (address => mapping (address => bool)) public channelBetweenPairs;\n\n    function txNotExpired (uint256 _expiration) internal view {\n        require(block.number < _expiration);\n    }\n\n    function channelDoesNotExist (bytes32 _channelId) internal view {\n        require(channels[_channelId].address0 == address(0));\n    }\n\n    function noChannelBetweenPair (address _address0, address _address1) internal view {\n        require(_address0 < _address1);\n        require(!channelBetweenPairs[_address0][_address1]);\n    }\n\n    function channelExists (Channel _channel) internal pure {\n        require(_channel.address0 != address(0));\n    }\n\n    function channelSettlingPeriodStarted (Channel _channel) internal pure {\n        require(_channel.settlingPeriodStarted);\n    }\n\n    function channelSettlingPeriodNotStarted (Channel _channel) internal pure {\n        require(!_channel.settlingPeriodStarted);\n    }\n\n    function channelIsSettled (Channel _channel) internal view {\n        require(\n            _channel.settlingPeriodStarted && // If the settling period has started\n            block.number >= _channel.settlingPeriodEnd // And ended\n        );\n    }\n\n    function channelIsNotSettled (Channel _channel) internal view {\n        require(\n            !( // Negate the below\n                _channel.settlingPeriodStarted && // If the settling period is started\n                block.number >= _channel.settlingPeriodEnd // And ended\n            )\n        );\n    }\n\n    function balancesEqualTotal (Channel _channel, uint256 _balance0, uint256 _balance1) internal view {\n        require(_balance0.add(_balance1) == _channel.totalBalance);\n    }\n\n    function sequenceNumberIsHighest (Channel _channel, uint256 _sequenceNumber) internal pure {\n        require(_sequenceNumber > _channel.sequenceNumber);\n    }\n\n    function signedBy (\n        bytes32 _fingerprint,\n        bytes _signature,\n        address _address\n    ) internal {\n        require(ecverify(_fingerprint, _signature, _address));\n    }\n\n    function signedByBoth (\n        bytes32 _fingerprint,\n        bytes _signature0,\n        bytes _signature1,\n        address _address0,\n        address _address1\n    ) internal {\n        require(\n            ecverify(_fingerprint, _signature0, _address0) &&\n            ecverify(_fingerprint, _signature1, _address1)\n        );\n    }\n\n    function signedByOne (\n        bytes32 _fingerprint,\n        bytes _signature,\n        address _address0,\n        address _address1\n    ) internal {\n        require(\n            ecverify(_fingerprint, _signature, _address0) ||\n            ecverify(_fingerprint, _signature, _address1)\n        );\n    }\n\n    function incrementBalance(address _addr, uint _value)\n        internal\n    {\n        ethBalances[_addr] = ethBalances[_addr].add(_value);\n    }\n\n    function decrementBalance(address _addr, uint _value)\n        internal\n    {\n        ethBalances[_addr] = ethBalances[_addr].sub(_value);\n    }\n\n    /// @dev Create a new channel between two nodes. _address0 must be numerically smaller than _address1. This will generate a channelId which is used to make other transactions on this channel. It emits a ChannelOpened event which is indexed by _address0, _address1 and also contains the _channelId.\n    /// @param _address0 The numerically lower address of one of the channel participants. \n    /// @param _address1 The numerically higher address of the other channel participant.\n    /// @param _balance0 The amount that _address0 would like to lock in the channel.\n    /// @param _balance1 The amount that _address1 would like to lock in the channel. Address0 and address1 must have enough money to cover these amounts, and it is withdrawn from their accounts when this tx is submitted. \n    /// @param _expiration The block that this newChannel tx will expire. The purpose of the expiration is to prevent a scenario where an attacker submits an old, forgotten newChannel tx in the future, causing an unexpected withdrawal of our funds into the channel. If this is set to be too soon in the future, then it may not be possible to get this tx countersigned and onto the blockchain in time.\n    /// @param _settlingPeriodLength This is the amount of time that the channel will remain in settling mode during a contentious close. If this is set too short, it may not be possible for a node (or bounty hunter) to prevent an old update attack before the settling period ends. If this is set too long, it will allow an attacker to unfairly lock up an honest node's funds for an unreasonable amount of time.\n\n    function newChannel(\n        address _address0,\n        address _address1,\n\n        uint256 _balance0,\n        uint256 _balance1,\n\n        uint256 _expiration,\n        uint256 _settlingPeriodLength,\n\n        bytes _signature0,\n        bytes _signature1\n    ) public {\n        noChannelBetweenPair(_address0, _address1);\n        txNotExpired(_expiration);\n\n        bytes32 fingerprint = sha3(\n            \"newChannel\",\n            address(this),\n            _address0,\n            _address1,\n            _balance0,\n            _balance1,\n            _expiration,\n            _settlingPeriodLength\n        );\n\n        signedByBoth(\n            fingerprint,\n            _signature0,\n            _signature1,\n            _address0,\n            _address1\n        );\n\n        bytes32 channelId = sha3( \n            block.number,\n            address(this),\n            _address0,\n            _address1\n        ); \n\n\n        channels[channelId] = Channel(\n            _address0,                   // address address0;\n            _address1,                   // address address1;\n            _balance0.add(_balance1),    // uint256 totalBalance;\n\n            _balance0,                   // uint256 balance0;\n            _balance1,                   // uint256 balance1;\n            0,                           // uint256 sequenceNumber;\n\n            _settlingPeriodLength,       // uint256 settlingPeriodLength;\n            false,                       // bool settlingPeriodStarted;\n            0                           // uint256 settlingPeriodEnd;\n        );\n\n        channelBetweenPairs[_address0][_address1] = true;\n\n        ChannelOpened(\n            _address0,\n            _address1,\n            channelId\n        );\n\n        decrementBalance(_address0, _balance0);\n        decrementBalance(_address1, _balance1);\n    }\n\n    /// @dev Update the balances in the channel to make a payment from one node to another. \n    /// @param _channelId The channelId of the channel to update.\n    /// @param _sequenceNumber The sequence number of the update. If an update with a higher sequence number has already been added, this updateState tx will fail.\n    /// @param _balance0 The balance of address0.\n    /// @param _balance1 The balance of address1. These balances must add up to the channel's totalBalance.\n    \n    function updateState(\n        bytes32 _channelId,\n        uint256 _sequenceNumber,\n\n        uint256 _balance0,\n        uint256 _balance1,\n\n        bytes _signature0,\n        bytes _signature1\n    ) public {\n        Channel storage channel = channels[_channelId];\n        channelExists(channel);\n        channelIsNotSettled(channel);\n        sequenceNumberIsHighest(channel, _sequenceNumber);\n        balancesEqualTotal(channel, _balance0, _balance1);\n\n        bytes32 fingerprint = sha3(\n            \"updateState\",\n            address(this),\n            _channelId,\n            _sequenceNumber,\n            _balance0,\n            _balance1\n        );\n\n        signedByBoth(\n            fingerprint,\n            _signature0,\n            _signature1,\n            channel.address0,\n            channel.address1\n        );\n\n        channel.sequenceNumber = _sequenceNumber;\n        channel.balance0 = _balance0;\n        channel.balance1 = _balance1;\n    }\n\n    /// @dev Submit an updateTx on behalf of another node and recieve a bounty if this saves them from an old update attack.\n    /// @param _channelId The channelId of the channel to update.\n    /// @param _sequenceNumber The sequence number of the update. If an update with a higher sequence number has already been added, this updateState tx will fail.\n    /// @param _balance0 The balance of address0.\n    /// @param _balance1 The balance of address1. These balances must add up to the channel's totalBalance.\n    /// @param _signature0 The signature of address0 on the updateTx.\n    /// @param _signature1 The signature of address1 on the updateTx.\n    /// @param _bountyAmount The amount of the bounty that will be granted to the node submitting this transaction if it will prevent an old update attack on address0 or address1.\n    /// @param _bountySignature The signature of the account paying the bounty.\n\n    function updateStateWithBounty(\n        bytes32 _channelId,\n        uint256 _sequenceNumber,\n\n        uint256 _balance0,\n        uint256 _balance1,\n\n        bytes _signature0,\n        bytes _signature1,\n\n        uint256 _bountyAmount,\n        bytes _bountySignature\n    ) public {\n        Channel memory channel = channels[_channelId];\n        channelSettlingPeriodStarted(channel);\n\n        bytes32 fingerprint = sha3(\n            \"updateStateWithBounty\",\n            address(this),\n            _channelId,\n            _sequenceNumber,\n            _balance0,\n            _balance1,\n            _signature0,\n            _signature1,\n            _bountyAmount\n        );\n\n        address bountyPayer = ecrecovery(fingerprint, _bountySignature);\n\n        decrementBalance(bountyPayer, _bountyAmount);\n        incrementBalance(msg.sender, _bountyAmount);\n\n        updateState(\n            _channelId,\n            _sequenceNumber,\n\n            _balance0,\n            _balance1,\n\n            _signature0,\n            _signature1\n        );\n    }\n\n    /// @dev Close the channel and transfer the current balances back to the participants. \n    /// @param _channelId The channelId of the channel to update.\n    /// @param _sequenceNumber The sequence number of the update. If an update with a higher sequence number has already been added, this updateState tx will fail.\n    /// @param _balance0 The balance of address0.\n    /// @param _balance1 The balance of address1. These balances must add up to the channel's totalBalance, and will be sent to address0 and address1 when this tx is submitted.\n\n    function closeChannelFast (\n        bytes32 _channelId,\n\n        uint256 _sequenceNumber,\n        uint256 _balance0,\n        uint256 _balance1,\n\n        bytes _signature0,\n        bytes _signature1\n    ) public {\n        Channel storage channel = channels[_channelId];\n\n        channelExists(channel);\n        sequenceNumberIsHighest(channel, _sequenceNumber);\n        balancesEqualTotal(channel, _balance0, _balance1);\n\n        bytes32 fingerprint = sha3(\n            \"closeChannelFast\",\n            address(this),\n            _channelId,\n            _sequenceNumber,\n            _balance0,\n            _balance1\n        );\n\n        signedByBoth(\n            fingerprint,\n            _signature0,\n            _signature1,\n            channel.address0,\n            channel.address1\n        );\n\n        channel.sequenceNumber = _sequenceNumber;\n        channel.balance0 = _balance0;\n        channel.balance1 = _balance1;\n\n        incrementBalance(channel.address0, channel.balance0);\n        incrementBalance(channel.address1, channel.balance1);\n\n        delete channelBetweenPairs[channel.address0][channel.address1];\n        delete channels[_channelId];\n    }\n\n    /// @dev Start the channel's settling period. This is used in the event of a contentious channel closing, where the participants can not agree to sign a closeChannelFast tx. This only requires the signature of one of the participants.\n    /// @param _channelId The Id of the channel to settle.\n    /// @param _signature The signature of address0 or address1.\n\n    function startSettlingPeriod (\n        bytes32 _channelId,\n        bytes _signature\n    ) public {\n        Channel storage channel = channels[_channelId];\n        channelExists(channel);\n        channelSettlingPeriodNotStarted(channel);\n\n        bytes32 fingerprint = sha3(\n            \"startSettlingPeriod\",\n            address(this),\n            _channelId\n        );\n\n        signedByOne(\n            fingerprint,\n            _signature,\n            channel.address0,\n            channel.address1\n        );\n\n        channel.settlingPeriodStarted = true;\n        channel.settlingPeriodEnd = block.number + channel.settlingPeriodLength;\n\n        SettlingStarted(\n            _channelId,\n            channel.sequenceNumber\n        );\n    }\n\n    /// @dev Close the channel after a settling period has been started and has ended, transfering the balances in the last updateState tx back to the participants. This is only used in a contentious closing, where startSettlingPeriod has already been called.\n    /// @param _channelId The Id of the channel to be closed.\n\n    function closeChannel (\n        bytes32 _channelId\n    ) public {\n        Channel storage channel = channels[_channelId];\n\n        channelExists(channel);\n        channelIsSettled(channel);\n\n        incrementBalance(channel.address0, channel.balance0);\n        incrementBalance(channel.address1, channel.balance1);\n\n        delete channelBetweenPairs[channel.address0][channel.address1];\n        delete channels[_channelId];\n    }\n\n    /// @dev Refill or withdraw money from a channel which is currently open. This is equivalent to both participants signing and sumbitting a closeChannelFast tx followed by a newChannel tx, except that the channelId, the settlingPeriod, and the current sequenceNumber do not change. This logs a ChannelReDrawn event containing the channelId\n    /// @param _channelId The Id of the channel to ReDraw.\n    /// @param _sequenceNumber The channel's current sequenceNumber.\n    /// @param _oldBalance0 The balance of address0.\n    /// @param _oldBalance1 The balance of address1.These balances must add up to the channel's totalBalance, and will be sent to address0 and address1 when this tx is submitted.\n    /// @param _newBalance0 The intended new balance of address0.\n    /// @param _newBalance1 The intended new balance of address1. Address0 and address1 must have enough money to cover these amounts, and it is withdrawn from their accounts when this tx is submitted. \n    /// @param _expiration The block that this tx expires. See documentation for the newChannel tx for more detail on why this exists.\n\n\n    function reDraw (\n        bytes32 _channelId,\n\n        uint256 _sequenceNumber,\n        uint256 _oldBalance0,\n        uint256 _oldBalance1,\n\n        uint256 _newBalance0,\n        uint256 _newBalance1,\n\n        uint256 _expiration,\n\n        bytes _signature0,\n        bytes _signature1\n    ) public {\n        Channel storage channel = channels[_channelId];\n\n        channelExists(channel);\n        sequenceNumberIsHighest(channel, _sequenceNumber);\n        balancesEqualTotal(channel, _oldBalance0, _oldBalance1);\n        txNotExpired(_expiration);\n\n\n        bytes32 fingerprint = sha3(\n            \"reDraw\",\n            address(this),\n            _channelId,\n\n            _sequenceNumber,\n            _oldBalance0,\n            _oldBalance1,\n\n            _newBalance0,\n            _newBalance1,\n\n            _expiration\n        );\n\n        signedByBoth(\n            fingerprint,\n            _signature0,\n            _signature1,\n            channel.address0,\n            channel.address1\n        );\n\n        channel.sequenceNumber = _sequenceNumber;\n\n        channel.totalBalance = _newBalance0.add(_newBalance1);\n        channel.balance0 = _newBalance0;\n        channel.balance1 = _newBalance1;\n\n        ChannelReDrawn(\n            _channelId\n        );\n\n        incrementBalance(channel.address0, _oldBalance0);\n        incrementBalance(channel.address1, _oldBalance1);\n        decrementBalance(channel.address0, _newBalance0);\n        decrementBalance(channel.address1, _newBalance1);\n    }\n}\n",
  "sourcePath": "/home/sebas/githubs/althea/payment_channel/guac/contracts/PaymentChannels.sol",
  "compiler": {
    "name": "solc",
    "version": "0.4.24+commit.e67f0147.Emscripten.clang"
  },
  "schemaVersion": "2.0.1",
  "updatedAt": "2018-11-21T17:26:10.529Z"
}